:020000040000FA
:10000000680100206D010000710100007301000013
:1000100000000000000000000000000000000000E0
:10002000000000000000000000000000750100005A
:100030000000000000000000770100007D090000C2
:100040007B0100007B0100007B010000000000003C
:100050007B01000000000000000000000000000024
:10006000000000007B010000000000000000000014
:10007000000000007B010000000000007B01000088
:100080007B010000000000007B0100000000000078
:100090007B010000000000000000000000000000E4
:1000A0007B0100007B010000000000000000000058
:1000B0000000000000000000000000007B010000C4
:1000C00000F002F800F042F812A030C808382418F6
:1000D0002D18AC4201D100F039F80FCCA246AB4646
:1000E0000CA730CF2D1B083F3F197C427F1E544484
:1000F0002D090426F441641EAC4201D300F026F819
:100100000126334200D0FB1A3343984754465D46DC
:10011000DFE70000BC0E0000CC0E00000000000075
:100120007047000000000000002300240025002686
:10013000103A01D378C1FBD8520700D330C100D5A3
:100140000B6070471FB51FBD10B510BD00F027F83C
:100150001146FFF7F7FF00F019FC00F03FF803B479
:10016000FFF7F2FF03BC00F045F800000648004727
:10017000FEE7FEE7FEE7FEE7FEE7FEE70348044989
:10018000024A044B70470000C100000068000020D4
:10019000680100206800002070477047704775466E
:1001A00000F024F8AE46050069465346C008C0007A
:1001B000854618B020B5FFF7E1FF60BCB6460026C3
:1001C0000027C0C5C0C5C0C5C0C5C0C5C0C5C0C565
:1001D000C0C5403D490849008D46704710B50446EA
:1001E000C046C0462046FFF7BAFF10BD0048704722
:1001F0000000002001491820ABBEFEE726000200E7
:100200007047811E091F00BFFCD27047B0B5B020F7
:1002100000F058F9102000F055F90025284600F0AC
:1002200051F90024204600F04DFA681C45B2002D1B
:10023000F7D5B12000F046F9102000F043F9204630
:1002400000F040F90025284600F03CFA601C44B25A
:10025000002CF7D5B22000F035F9102000F032F96B
:10026000284600F02FF90024204600F02BFA681CE5
:1002700045B2002DF7D5B32000F024F9102000F08E
:1002800021F9204600F01EF90025284600F01AFA50
:10029000601C44B2002CF7D5B42000F013F91020F4
:1002A00000F010F9284600F00DF90024204600F077
:1002B00009FA681C45B2002DF7D5B52000F002F907
:1002C000102000F0FFF8204600F0FCF8002528463A
:1002D00000F0F8F9601C44B2002CF7D5B62000F00D
:1002E000F1F8102000F0EEF8284600F0EBF80024BA
:1002F000204600F0E7F9681C45B2002DF7D5B7207D
:1003000000F0E0F8102000F0DDF8204600F0DAF808
:10031000002000F0D7F9601C44B2002CF8D5B0BD25
:1003200080B5012081032A4A116000BF00BF00BFD1
:1003300000BFC003106000BF00BF00BF00BFAE2001
:1003400000F0C0F8D52000F0BDF8802000F0BAF829
:10035000A82000F0B7F83F2000F0B4F8D32000F058
:10036000B1F8002000F0AEF8402000F0ABF8A1207A
:1003700000F0A8F8C82000F0A5F8DA2000F0A2F8F4
:10038000122000F09FF8812000F09CF8CF2000F0B0
:1003900099F8D92000F096F8F12000F093F8DB20CE
:1003A00000F090F8302000F08DF8A42000F08AF8DA
:1003B000A62000F087F88D2000F084F8142000F0CB
:1003C00081F8AF2000F07EF8FFF720FF80BDC04627
:1003D00090120A40F0B583B016460C4640000290D9
:1003E0007E30B02101910843C0B200F06BF8E70005
:1003F000083FF8B204091034204600F063F80825DD
:100400003D40284600F05EF8300121494618214F52
:10041000F05D00F057F9F619707800F053F9B078F4
:1004200000F050F9F07800F04DF9307900F04AF919
:10043000707900F047F9B07900F044F9F07900F0F4
:1004400041F90298401E01990843C0B200F03AF801
:10045000204600F037F8284600F034F8307A00F0F3
:1004600031F9707A00F02EF9B07A00F02BF9F07AB9
:1004700000F028F9307B00F025F9707B00F022F9BC
:10048000B07B00F01FF9F07B00F01CF903B0F0BD69
:10049000D409000000FEFFFFF0B581B006461078D9
:1004A00000280DD014460D4600277919C9B2C2B2F2
:1004B0003046FFF78FFF7F1CF8B2205C0028F4D194
:1004C00001B0F0BD70B5634A1446103C0123D90356
:1004D000216000BF00BF00BF00BF9B03236000BFBF
:1004E00000BF00BF00BF116000BF00BF00BF00BF62
:1004F000136000BF00BF00BF00BF002511E03160E6
:1005000000BF00BF00BF00BF236000BF00BF00BF2F
:1005100000BF136000BF00BF00BF00BF6D1C082DEF
:1005200007D08026EE407606360F1646E7D02646E0
:10053000E5E71446103C236000BF00BF00BF00BFCA
:10054000136000BF00BF00BF00BF116000BF00BF4D
:1005500000BF00BF236000BF00BF00BF00BF13602B
:1005600000BF00BF00BF00BF116000BF00BF00BFE1
:1005700000BF236000BF00BF00BF00BF136000BF0B
:1005800000BF00BF00BF116000BF00BF00BF00BFC1
:10059000236000BF00BF00BF00BF136000BF00BFEB
:1005A00000BF00BF116000BF00BF00BF00BF2360DD
:1005B00000BF00BF00BF00BF136000BF00BF00BF8F
:1005C00000BF116000BF00BF00BF00BF236000BFBD
:1005D00000BF00BF00BF136000BF00BF00BF00BF6F
:1005E000116000BF00BF00BF00BF236000BF00BF9D
:1005F00000BF00BF136000BF00BF00BF00BF11609D
:1006000000BF00BF00BF00BF236000BF00BF00BF2E
:1006100000BF136000BF00BF00BF00BF116000BF7C
:1006200000BF00BF00BF236000BF00BF00BF00BF0E
:10063000136000BF00BF00BF00BF236000BF00BF4A
:1006400000BF00BF136000BF00BF00BF00BF002598
:1006500014E0C046A0120A40316000BF00BF00BFD6
:1006600000BF236000BF00BF00BF00BF136000BF1A
:1006700000BF00BF00BF6D1C082D06D00646AE406F
:1006800036061646E8D52646E6E7104610380360DB
:1006900000BF00BF00BF00BF136000BF00BF00BFAE
:1006A00000BF116000BF00BF00BF00BF036000BFFC
:1006B00000BF00BF00BF016000BF00BF00BF00BFA0
:1006C00070BD000070B5634A1446103C0123D90385
:1006D000216000BF00BF00BF00BF9B03236000BFBD
:1006E00000BF00BF00BF116000BF00BF00BF00BF60
:1006F000136000BF00BF00BF00BF002511E03160E4
:1007000000BF00BF00BF00BF236000BF00BF00BF2D
:1007100000BF136000BF00BF00BF00BF6D1C082DED
:1007200007D08026EE407606360F1646E7D02646DE
:10073000E5E71446103C236000BF00BF00BF00BFC8
:10074000136000BF00BF00BF00BF116000BF00BF4B
:1007500000BF00BF236000BF00BF00BF00BF136029
:1007600000BF00BF00BF00BF216000BF00BF00BFCF
:1007700000BF236000BF00BF00BF00BF136000BF09
:1007800000BF00BF00BF116000BF00BF00BF00BFBF
:10079000236000BF00BF00BF00BF136000BF00BFE9
:1007A00000BF00BF116000BF00BF00BF00BF2360DB
:1007B00000BF00BF00BF00BF136000BF00BF00BF8D
:1007C00000BF116000BF00BF00BF00BF236000BFBB
:1007D00000BF00BF00BF136000BF00BF00BF00BF6D
:1007E000116000BF00BF00BF00BF236000BF00BF9B
:1007F00000BF00BF136000BF00BF00BF00BF11609B
:1008000000BF00BF00BF00BF236000BF00BF00BF2C
:1008100000BF136000BF00BF00BF00BF116000BF7A
:1008200000BF00BF00BF236000BF00BF00BF00BF0C
:10083000136000BF00BF00BF00BF236000BF00BF48
:1008400000BF00BF136000BF00BF00BF00BF002596
:1008500014E0C046A0120A40316000BF00BF00BFD4
:1008600000BF236000BF00BF00BF00BF136000BF18
:1008700000BF00BF00BF6D1C082D06D00646AE406D
:1008800036061646E8D52646E6E7104610380360D9
:1008900000BF00BF00BF00BF136000BF00BF00BFAC
:1008A00000BF116000BF00BF00BF00BF036000BFFA
:1008B00000BF00BF00BF016000BF00BF00BF00BF9E
:1008C00070BD0000084809498160416081210160D4
:1008D00001204003064908610320800308600720C7
:1008E000400308647047C0463880424081000200DF
:1008F00090120A4006480021016006480168032260
:10090000914301600121090342680A434260704734
:1009100008030B4000010B40084809494160FF21D2
:100920000906084A13688B43032189075918116087
:1009300000218160072101607047C04610E000E09F
:10094000FF7C000020ED00E080B500F007F8FFF725
:10095000B9FFFFF7CFFFFFF7DFFF80BD80B5044889
:1009600004494160044901601020FFF74AFC80BD42
:1009700000080A40030000B1010000261348016886
:10098000002902D00168491E01607047FFF7DCFFB3
:100990000E48282101600168002908D0016800295B
:1009A00005D00168002902D001680029F3D1FFF7C2
:1009B000B7FC0120064C01462246FFF76DFD0220E0
:1009C00001212246FFF768FDF9E7C04660000020DC
:1009D000C40F000000000000000000000000000044
:1009E00000000000000000F80000000000000033DC
:1009F0003000000000100C06100C06000000000083
:100A00000000000040C07840C0784000043F04046B
:100A10003F040400007088FC08300000001820FF2C
:100A2000211E0000F008F000E018000000211C0367
:100A30001E211E0000F00888700000001E212324E3
:100A40001927211010160E00000000000000000001
:100A500000000000000000E0180402000000000791
:100A60001820400000020418E00000000040201898
:100A700007000000404080F0804040000202010F6B
:100A800001020200000000F0000000000101011F4F
:100A900001010100000000000000000080B07000B3
:100AA0000000000000000000000000000001010143
:100AB00001010101000000000000000000303000D2
:100AC00000000000000000008060180400601806AC
:100AD0000100000000E010080810E000000F1020E6
:100AE00020100F00001010F8000000000020203F30
:100AF00020200000007008080888700000302824BA
:100B0000222130000030088888483000001820205A
:100B100020110E000000C02010F80000000704247F
:100B2000243F240000F808888808080000192120C4
:100B300020110E0000E0108888180000000F11201E
:100B400020110E0000380808C83808000000003FD7
:100B5000000000000070880808887000001C222136
:100B600021221C0000E010080810E00000003122E3
:100B700022110F00000000C0C00000000000003083
:100B800030000000000000800000000000008060D5
:100B90000000000000008040201008000001020456
:100BA000081020004040404040404000040404043D
:100BB00004040400000810204080000000201008F9
:100BC00004020100007048080808F000000000302E
:100BD00036010000C030C828E810E00007182724BC
:100BE00023140B000000C038E0000000203C23026A
:100BF0000227382008F8888888700000203F2020CD
:100C000020110E00C03008080808380007182020FE
:100C10002010080008F808080810E000203F2020F5
:100C200020100F0008F88888E8081000203F2020D6
:100C30002320180008F88888E8081000203F2000CA
:100C400003000000C0300808083800000718202002
:100C5000221E020008F808000008F808203F2101C1
:100C600001213F20000808F8080800000020203F6C
:100C70002020000000000808F8080800C0808080DC
:100C80007F00000008F888C028180800203F2001D5
:100C90002638200008F8080000000000203F20202F
:100CA0002020300008F8F800F8F80800203F003F46
:100CB000003F200008F830C00008F808203F20005E
:100CC00007183F00E01008080810E0000F1020206F
:100CD00020100F0008F808080808F000203F210144
:100CE00001010000E01008080810E0000F1824249B
:100CF00038504F0008F8888888887000203F20000E
:100D0000030C3020007088080808380000382021C3
:100D100021221C00180808F8080818000000203FCD
:100D20002000000008F808000008F808001F202034
:100D300020201F000878880000C838080000073805
:100D40000E010000F80800F80008F800033C070056
:100D5000073C0300081868808068180820302C03BE
:100D6000032C30200838C800C83808000000203F95
:100D70002000000010080808C83808002038262184
:100D800020201800000000FE020202000000007F88
:100D900040404000000C30C0000000000000000196
:100DA0000638C00000020202FE0000000040404081
:100DB0007F000000000004020202040000000000A6
:100DC0000000000000000000000000008080808023
:100DD000808080800002020400000000000000000B
:100DE00000000000000080808080000000192422A4
:100DF00022223F2008F8008080000000003F1120E0
:100E000020110E000000008080800000000E1120E4
:100E100020201100000000808088F800000E1120C2
:100E200020103F200000808080800000001F2222D0
:100E300022221300008080F0888888180020203F3C
:100E4000202000000000808080808000006B94944F
:100E50009493600008F8008080800000203F21000B
:100E600000203F2000809898000000000020203FD4
:100E700020200000000000809898000000C08080C2
:100E8000807F000008F8000080808000203F24025E
:100E90002D302000000808F8000000000020203F4E
:100EA000202000008080808080808000203F200003
:100EB0003F20003F8080008080800000203F210094
:100EC00000203F200000808080800000001F202044
:100ED00020201F00808000808000000080FFA12073
:100EE00020110E000000008080808000000E112084
:100EF00020A0FF80808080008080800020203F2113
:100F000020000100000080808080800000332424C5
:100F100024241900008080E0808000000000001F71
:100F2000202000008080000000808000001F202022
:100F300020103F20808080000080808000010E30E3
:100F40000806010080800080008080800F300C0344
:100F50000C300F0000808000808080000020312E47
:100F60000E312000808080000080808080818E7023
:100F70001806010000808080808080000021302CD5
:100F80002221300000000000807C020200000000EE
:100F9000003F404000000000FF0000000000000093
:100FA000FF0000000002027C800000000040403F83
:100FB000000000000006010102020404000000001D
:100FC0000000000061626364656667000000000065
:100FD000E00F000000000020680100002801000070
:04000005000000C136
:00000001FF
